:020000040800F2
:1000000000500020A90F00089D0E0008A30E000854
:10001000A90E0008AF0E0008B50E00080000000091
:10002000000000000000000000000000BB0E0008FF
:10003000C70E000800000000D30E0008DF0E000805
:10004000F10F0008F10F0008F10F0008F10F000890
:10005000F10F0008F10F0008F10F0008F10F000880
:10006000F10F0008F10F0008F10F0008F10F000870
:10007000F10F0008F10F0008F10F0008F10F000860
:10008000F10F0008F10F0008ED0E0008F10F000855
:10009000F10F0008F10F0008F10F0008F10F000840
:1000A000F10F0008290F0008F10F0008F10F0008F8
:1000B000F10F00083D0F0008510F0008F10F000874
:1000C000F10F0008F10F0008F10F0008F10F000810
:1000D000650F0008790F0008F10F0008F10F000804
:1000E0008D0F0008F10F0008F10F0008000000005C
:1000F0000000000000000000000000000000000000
:0C01000000000000000000005FF808F1A3
:10010C0010B5054C237833B9044B13B10448AFF345
:10011C0000800123237010BD0C00002000000000A3
:10012C00B053000808B5034B1BB103490348AFF3A8
:10013C00008008BD0000000010000020B053000833
:10014C0080B400AF024B1B681846BD4680BC70479C
:10015C002C00002080B400AF054B00221A60054B28
:10016C001B6800225A6200BFBD4680BC704700BFAE
:10017C002C0000202001002080B500AF0D4B1B7817
:10018C00002B05D0FFF7E6FF0A4B01221A7010E096
:10019C00094803F075FB6421084801F083F808480E
:1001AC0003F06EFB074803F06BFB024B01221A7045
:1001BC0000BF80BD28000020B001002040000020BE
:1001CC0020010020F801002080B500AF094B00226F
:1001DC001A70094803F02DFB084803F02AFB084865
:1001EC0003F027FB054B1B6800225A62FFF7B2FF96
:1001FC0000BF80BD2800002020010020B00100209D
:10020C00F801002080B582B000AF78607B681B6875
:10021C00124A934211D1124B1B6800225A62114BA5
:10022C001B6801330F4A13600E4B1B684EF65F229E
:10023C00934202D90B4B00221A607B681B680A4A56
:10024C00934207D12021094802F0C5F8084B1B68DE
:10025C0000225A6200BF0837BD4680BD002C014009
:10026C00200100202C00002000080040000C014060
:10027C00F801002080B500AF0B4B00221A700B4B1D
:10028C001B78AA2B02D0FF2B03D00AE0FFF774FFD8
:10029C0007E0FFF799FF01222021054802F083F8BF
:1002AC0000BF00BF80BD00BF3D000020300000201B
:1002BC00000C014080B582B000AF7860094B012280
:1002CC001A70094B1A78094B1A702021084802F051
:1002DC0082F801220449074804F053FA00BF08379A
:1002EC00BD4680BD3D0000203000002034000020C1
:1002FC00000C01404002002080B500AF01220549EE
:10030C00054804F03EFA00222021044802F04BF884
:10031C0000BF80BD3000002040020020000C0140D6
:10032C0080B584B000AF0346FB80FFF709FFF8608F
:10033C000F4B06221A70FB68DAB20D4B5A70FB6831
:10034C001B0ADAB20A4B9A70FB88DAB2084BDA70E5
:10035C00FB881B0A9BB2DAB2054B1A7104230522E7
:10036C000349044804F07BF900BF1037BD4680BD3B
:10037C00380000204002002080B500AF00F034FEB1
:10038C0000F032F800F0C6FA00F0FEF800F098FA2F
:10039C0000F0C4F800F0F8F900F082F800F076F9FB
:1003AC0000F024F900F03EFA0B4801F081F8FFF759
:1003BC00A3FF0A4B1B78002B01D0FFF75BFF084B08
:1003CC001B78002BF5D0064B00221A70054B1B88AE
:1003DC001846FFF7A5FFECE7400000203D00002089
:1003EC00840200208602002080B594B000AF07F193
:1003FC00280328220021184604F0CCFF07F114032F
:10040C0000221A605A609A60DA601A613B1D002261
:10041C001A605A609A60DA600123BB624FF4803331
:10042C00FB6200233B630123BB6302237B644FF419
:10043C008033BB644FF4E013FB6407F128031846C8
:10044C0001F0FAFF0346002B01D000F0D9FA0F237C
:10045C007B610223BB610023FB614FF480633B6231
:10046C0000237B6207F114030221184602F066FA9E
:10047C000346002B01D000F0C3FA02237B604FF43B
:10048C000043FB603B1D184602F0F0FB0346002BBB
:10049C0001D000F0B5FA00BF5037BD4680BD00005A
:1004AC0080B584B000AF3B1D00221A605A609A6080
:1004BC00184B194A1A60174B00229A60154B0022F0
:1004CC001A73144B00221A75124B4FF40022DA6186
:1004DC00104B00225A600F4B01221A610D4800F09C
:1004EC0009FE0346002B01D000F08AFA08237B603A
:1004FC000123BB600023FB603B1D1946054801F03E
:10050C006FF90346002B01D000F07AFA00BF1037C8
:10051C00BD4680BD400000200024014080B500AFE6
:10052C00174B184A1A60164B4FF482725A60144BD0
:10053C0000229A60124B0022DA60114B00221A61E1
:10054C000F4B00225A610E4B4FF400729A610C4B08
:10055C002022DA610A4B00221A62094B00225A62ED
:10056C00074B00229A62064B0A22DA62044802F018
:10057C00F3FC0346002B01D000F042FA00BF80BD13
:10058C00700000200030014080B500AF154B164ABA
:10059C001A60144B00225A60124B00229A60114BC5
:1005AC000022DA600F4B00221A610E4B00225A61B6
:1005BC000C4B4FF400729A610A4B00221A62094BE1
:1005CC0000225A62074B00229A62064B0A22DA6218
:1005DC00044802F0C1FC0346002B01D000F010FAD5
:1005EC0000BF80BDC80000200038004080B586B038
:1005FC0000AF07F1080300221A605A609A60DA60B3
:10060C003B4600221A605A601E4B1F4A1A601D4B53
:10061C0041F61F425A601B4B00229A60194B09226B
:10062C00DA60184B00221A61164B00225A61154BE6
:10063C0000229A61134803F0ADF80346002B01D059
:10064C0000F0DEF94FF48053BB6007F10803194644
:10065C000C4803F0DFFB0346002B01D000F0D0F96F
:10066C0000233B6000237B603B461946054803F0A2
:10067C0039FF0346002B01D000F0C2F900BF183738
:10068C00BD4680BD20010020002C014080B58EB0FD
:10069C0000AF07F1280300221A605A609A60DA60F2
:1006AC0007F1200300221A605A603B1D00221A60D9
:1006BC005A609A60DA601A615A619A61314B4FF054
:1006CC0080421A602F4B48225A602E4B00229A60AF
:1006DC002C4B40F2F512DA602A4B00221A61294B9E
:1006EC0000229A61274803F055F80346002B01D0ED
:1006FC0000F086F94FF48053BB6207F128031946CA
:10070C00204803F087FB0346002B01D000F078F95A
:10071C001C4803F007F90346002B01D000F070F9D8
:10072C000821184803F056F90346002B01D000F0BD
:10073C0067F900233B6200237B6207F12003194613
:10074C00104803F0CFFE0346002B01D000F058F9FF
:10075C0060237B600123BB600223FB6000237B6171
:10076C003B1D04221946074803F096FA0346002B5A
:10077C0001D000F045F9034800F0F2FA00BF383719
:10078C00BD4680BD6801002080B586B000AF07F182
:10079C00080300221A605A609A60DA603B46002215
:1007AC001A605A601D4B1E4A1A601C4B48225A6034
:1007BC001A4B00229A60194B40F2E732DA60174B61
:1007CC0000221A61154B00229A61144802F0E2FFD4
:1007DC000346002B01D000F013F94FF48053BB609B
:1007EC0007F1080319460D4803F014FB0346002BD0
:1007FC0001D000F005F930233B6000237B603B46C1
:10080C001946064803F06EFE0346002B01D000F09B
:10081C00F7F800BF1837BD4680BD00BFB0010020FF
:10082C000004004080B586B000AF07F10803002239
:10083C001A605A609A60DA603B4600221A605A606D
:10084C001D4B1E4A1A601C4B4FF6FF725A601A4B16
:10085C0000229A60184B4FF47A72DA60164B002221
:10086C001A61154B00229A61134802F093FF03465C
:10087C00002B01D000F0C4F84FF48053BB6007F19B
:10088C00080319460C4803F0C5FA0346002B01D0A7
:10089C0000F0B6F800233B6000237B603B46194612
:1008AC00054803F01FFE0346002B01D000F0A8F80A
:1008BC0000BF1837BD4680BDF8010020000800407D
:1008CC0080B500AF104B114A1A600F4B104A5A609A
:1008DC000D4B00229A600C4B0022DA600A4B00226E
:1008EC001A61094B0C225A61074B00229A61064B84
:1008FC000022DA61044803F065FE0346002B01D0A8
:10090C0000F07EF800BF80BD40020020003801409E
:10091C0090D0030080B588B000AF07F1100300221F
:10092C001A605A609A60DA60314B9B69304A43F026
:10093C00200393612E4B9B6903F02003FB60FB6843
:10094C002B4B9B692A4A43F004039361284B9B6908
:10095C0003F00403BB60BB68254B9B69244A43F03E
:10096C0008039361224B9B6903F008037B607B684F
:10097C00002218211F4801F016FD002220211E48DC
:10098C0001F011FD18233B6101237B610023BB6146
:10099C000223FB6107F110031946164801F0ACFA6B
:1009AC004FF480533B61154B7B610023BB6107F116
:1009BC0010031946104801F09FFA20233B610123D4
:1009CC007B610023BB610223FB6107F11003194615
:1009DC00094801F091FA00220121282001F097F931
:1009EC00282001F0B0F900BF2037BD4680BD00BF04
:1009FC000010024000080140000C014000003110C2
:100A0C0080B400AF72B600BFFEE7000080B485B0C2
:100A1C0000AF154B9B69144A43F001039361124BD1
:100A2C009B6903F00103BB60BB680F4BDB690E4A8B
:100A3C0043F08053D3610C4BDB6903F080537B6034
:100A4C007B680A4B5B68FB60FB6823F0E063FB6030
:100A5C00FB6843F00073FB60044AFB68536000BF03
:100A6C001437BD4680BC70470010024000000140A6
:100A7C0080B588B000AF786007F1100300221A60CF
:100A8C005A609A60DA607B681B68184A934229D1D5
:100A9C00174B9B69164A43F400739361144B9B6983
:100AAC0003F40073FB60FB68114B9B69104A43F025
:100ABC00080393610E4B9B6903F00803BB60BB6892
:100ACC0001233B6103237B6107F11003194609489D
:100ADC0001F012FA00220221122001F018F9122062
:100AEC0001F031F900BF2037BD4680BD0024014024
:100AFC0000100240000C014080B58AB000AF786055
:100B0C0007F1180300221A605A609A60DA607B6859
:100B1C001B683B4A934230D13A4B9B69394A43F4A8
:100B2C0080539361374B9B6903F480537B617B69E2
:100B3C00344B9B69334A43F004039361314B9B69FB
:100B4C0003F004033B613B69A023BB610223FB61FF
:100B5C0003237B6207F1180319462B4801F0CCF9EB
:100B6C004023BB610023FB6100233B6207F11803A8
:100B7C001946254801F0C0F93EE07B681B68234A02
:100B8C00934239D11F4BDB691E4A43F48043D36136
:100B9C001C4BDB6903F48043FB60FB68194B9B69BE
:100BAC00184A43F008039361164B9B6903F0080342
:100BBC00BB60BB684FF42043BB610023FB61002387
:100BCC003B6207F118031946114801F095F94FF4EF
:100BDC008043BB610223FB6103237B6207F1180393
:100BEC0019460B4801F088F900220121242001F05C
:100BFC008EF8242001F0A7F800BF2837BD4680BD31
:100C0C000030014000100240000801400038004054
:100C1C00000C014080B582B000AF78607B681B6827
:100C2C00124A93420AD1124B9B69114A23F4805306
:100C3C009361E0210F4801F0E3FA12E07B681B6836
:100C4C000D4A93420DD10A4BDB69094A23F48043C8
:100C5C00D3614FF46041094801F0D2FA242001F02D
:100C6C0080F800BF0837BD4680BD00BF0030014092
:100C7C00001002400008014000380040000C014008
:100C8C0080B586B000AF78607B681B68304A9342B1
:100C9C0014D1304B9B692F4A43F4006393612D4B65
:100CAC009B6903F400637B617B690022002119209E
:100CBC0001F02DF8192001F046F844E07B681B6820
:100CCC00B3F1804F0CD1234BDB69224A43F0010373
:100CDC00D361204BDB6903F001033B613B6932E0DC
:100CEC007B681B681C4A934214D11A4BDB69194A66
:100CFC0043F00203D361174BDB6903F00203FB6083
:100D0C00FB68002202211D2001F001F81D2001F0DA
:100D1C001AF818E07B681B68104A934213D10D4BEC
:100D2C00DB690C4A43F00403D3610A4BDB6903F023
:100D3C000403BB60BB68002203211E2000F0E7FF08
:100D4C001E2001F000F800BF1837BD4680BD00BF63
:100D5C00002C01400010024000040040000800403C
:100D6C0080B588B000AF786007F10C0300221A60E0
:100D7C005A609A60DA607B681B68B3F1804F29D1A6
:100D8C00164B9B69154A43F008039361134B9B69FF
:100D9C0003F00803BB60BB680823FB6002233B61C4
:100DAC000223BB6107F10C0319460D4801F0A4F8AE
:100DBC000C4B5B68FB61FB6923F44073FB61FB69C3
:100DCC0043F0E063FB61FB6943F48073FB61054A0C
:100DDC00FB69536000BF2037BD4680BD0010024048
:100DEC00000C01400000014080B588B000AF786075
:100DFC0007F1100300221A605A609A60DA607B686F
:100E0C001B68204A934239D11F4B9B691E4A43F4FD
:100E1C00804393611C4B9B6903F48043FB60FB682C
:100E2C00194B9B69184A43F004039361164B9B6959
:100E3C0003F00403BB60BB684FF400733B610223F7
:100E4C007B610323FB6107F1100319460F4801F086
:100E5C0053F84FF480633B6100237B610023BB613B
:100E6C0007F110031946094801F046F80022022147
:100E7C00252000F04CFF252000F065FF00BF203737
:100E8C00BD4680BD00380140001002400008014002
:100E9C0080B400AFFEE780B400AFFEE780B400AFD3
:100EAC00FEE780B400AFFEE780B400AFFEE780B48D
:100EBC0000AF00BFBD4680BC704780B400AF00BF20
:100ECC00BD4680BC704780B400AF00BFBD4680BC3F
:100EDC00704780B500AF00F0CDF800BF80BD0000BA
:100EEC0080B500AF094800F099FB03469AB2084B55
:100EFC001A80084B01221A70054B1B889AB2064BBC
:100F0C001A80024800F096FB00BF80BD4000002014
:100F1C0088020020840200208602002080B500AFE9
:100F2C00024802F0B0FD00BF80BD00BF20010020D0
:100F3C0080B500AF024802F0A6FD00BF80BD00BF27
:100F4C00B001002080B500AF024802F09CFD00BF4C
:100F5C0080BD00BFF801002080B500AF024802F050
:100F6C003BF900BF80BD00BFC800002080B500AFBA
:100F7C00024803F037FC00BF80BD00BF40020020D8
:100F8C0080B500AF4FF4805001F03EFA00BF80BD39
:100F9C0080B400AF00BFBD4680BC70470C480D4903
:100FAC000D4A002302E0D458C4500433C4188C42B8
:100FBC00F9D30A4A0A4C002301E013600432A2421E
:100FCC00FBD3FFF7E5FF04F0B3F9FFF7D5F9704752
:100FDC00000000200C000020085800080C00002025
:100FEC00C8070020FEE7000080B500AF084B1B6867
:100FFC00074A43F010031360032000F07DFE00202D
:10100C0000F008F8FFF702FD0023184680BD00BF72
:10101C000020024080B582B000AF7860124B1A6895
:10102C00124B1B7819464FF47A73B3FBF1F3B2FBF6
:10103C00F3F3184600F0A3FE0346002B01D0012366
:10104C000EE07B680F2B0AD8002279684FF0FF3036
:10105C0000F05DFE064A7B681360002300E001236C
:10106C0018460837BD4680BD00000020080000204F
:10107C000400002080B400AF054B1B781A46054BCA
:10108C001B681344034A136000BFBD4680BC704705
:10109C00080000208C02002080B400AF024B1B68BB
:1010AC001846BD4680BC70478C02002080B584B0C9
:1010BC0000AF7860FFF7F0FFB8607B68FB60FB68FF
:1010CC00B3F1FF3F05D00A4B1B781A46FB6813445B
:1010DC00FB6000BFFFF7E0FF0246BB68D31AFA685B
:1010EC009A42F7D800BF00BF1037BD4680BD00BF85
:1010FC000800002080B586B000AF78600023FB7537
:10110C0000233B610023BB600023FB607B68002B4A
:10111C0001D10123BEE07B689B68002B7B689B6A36
:10112C00002B09D17B680022DA627B68002283F8ED
:10113C0024207868FFF79CFC786800F0A3FC034639
:10114C00FB757B689B6A03F01003002B40F09980C1
:10115C00FB7D002B40F095807B689B6A23F48853C1
:10116C0023F0020343F002027B689A627B685A68A0
:10117C007B68DB691A437B681B7B5B001343BA6893
:10118C001343BB607B689B68B3F5807F03D07B689F
:10119C009B68012B02D14FF4807300E000233A6965
:1011AC0013433B617B681B7D012B19D17B681B7B37
:1011BC00002B09D17B689B69013B5A033B691343A4
:1011CC0043F400633B610BE07B689B6A43F02002B5
:1011DC007B689A627B68DB6A43F001027B68DA62A7
:1011EC007B681B685B6823F469417B681B683A6900
:1011FC000A435A607B681B689A68284B13407A68CC
:10120C001268B9680B4393607B689B68B3F5807F69
:10121C0003D07B689B68012B04D17B681B69013B65
:10122C001B05FB607B681B68DB6A23F470017B6821
:10123C001B68FA680A43DA627B681B689A68184B69
:10124C001340BA689A420BD17B680022DA627B6841
:10125C009B6A23F0030343F001027B689A6218E057
:10126C007B689B6A23F0120343F010027B689A623E
:10127C007B68DB6A43F001027B68DA620123FB7551
:10128C0007E07B689B6A43F010027B689A6201233B
:10129C00FB75FB7D18461837BD4680BDFDF7E1FF99
:1012AC00FE0E1FFF90B587B000AF78603960002349
:1012BC007B610023FB6000233B61FFF7EDFE78614F
:1012CC007B681B689B6803F48073002B0BD07B68D6
:1012DC009B6A43F020027B689A627B68002283F849
:1012EC0024200123D3E07B681B685B6803F48073C4
:1012FC00002B31D17B681B68DB6A03F47003002B75
:10130C002AD121E03B68B3F1FF3F1DD03B68002B95
:10131C0007D0FFF7C1FE02467B69D31A3A689A429E
:10132C0012D27B681B681B6803F00203002B0BD1E5
:10133C007B689B6A43F004027B689A627B6800229C
:10134C0083F824200323A2E07B681B681B6803F04E
:10135C000203002BD6D070E04F4B1C68022001F02A
:10136C003BFD0346B4FBF3F27B681B6819694B4BDE
:10137C000B40002B18D17B681B68D968484B0B407D
:10138C00002B11D17B681B681969464B0B40002B55
:10139C0008D17B681B68D968434B0B40002B01D1EB
:1013AC00142320E029231EE07B681B6819693D4B40
:1013BC000B40002B06D17B681B68D9683A4B0B405D
:1013CC00002B0DD07B681B681969384B0B40002B28
:1013DC0008D17B681B68D968344B0B40002B01D1BA
:1013EC00542300E0FC2302FB03F33B6121E03B6848
:1013FC00B3F1FF3F1AD03B68002B07D0FFF74CFE30
:10140C0002467B69D31A3A689A420FD2FB683A6952
:10141C009A420BD97B689B6A43F004027B689A6200
:10142C007B68002283F82420032330E0FB6801331F
:10143C00FB60FB683A699A42D9D87B681B686FF0ED
:10144C0012021A607B689B6A43F400727B689A6292
:10145C007B681B689B6803F46023B3F5602F15D180
:10146C007B681B7B002B11D17B689B6A23F48072F9
:10147C007B689A627B689B6A03F48053002B05D1CE
:10148C007B689B6A43F001027B689A6200231846D2
:10149C001C37BD4690BD00BF00000020244992249B
:1014AC002449920092244912922449004992240022
:1014BC0080B584B000AF78600023FB737B6893F831
:1014CC002430012B01D10223A0E07B68012283F898
:1014DC002420786800F07CFA0346FB73FB7B002B1E
:1014EC0040F08F807B689B6A23F4706323F00103C8
:1014FC0043F480727B689A627B681B68454A93420E
:10150C0005D1454B5B6803F47023002B15D17B6828
:10151C009B6A23F480127B689A627B681B685B6809
:10152C0003F48063002B26D07B689B6A23F4405322
:10153C0043F480527B689A621DE07B689B6A43F49B
:10154C0080127B689A627B681B68334A934204D092
:10155C007B681B682F4A93420DD12F4B5B6803F4B9
:10156C008063002B07D07B689B6A23F4405343F4C1
:10157C0080527B689A627B689B6A03F48053002BD1
:10158C0006D07B68DB6A23F006027B68DA6202E035
:10159C007B680022DA627B68002283F824207B6857
:1015AC001B686FF002021A607B681B685A687B68C4
:1015BC001B6842F020025A607B681B689B6803F42E
:1015CC006023B3F5602F13D17B681B68114A9342DB
:1015DC0005D1114B5B6803F47023002B08D17B6899
:1015EC001B689A687B681B6842F4A0029A600CE046
:1015FC007B681B689A687B681B6842F480129A604F
:10160C0003E07B68002283F82420FB7B184610370C
:10161C00BD4680BD002801400024014080B483B049
:10162C0000AF78607B681B68DB6C18460C37BD46D6
:10163C0080BC704780B582B000AF78607B681B6857
:10164C005B6803F02003202B40D17B681B681B6870
:10165C0003F00203022B39D17B689B6A03F0100361
:10166C00002B05D17B689B6A43F400727B689A62FD
:10167C007B681B689B6803F46023B3F5602F1DD156
:10168C007B681B7B002B19D17B681B685A687B68B5
:10169C001B6822F020025A607B689B6A23F48072DC
:1016AC007B689A627B689B6A03F48053002B05D19C
:1016BC007B689B6A43F001027B689A62786800F051
:1016CC007CF87B681B686FF012021A607B681B68E1
:1016DC005B6803F08003802B4FD17B681B681B6811
:1016EC0003F00403042B48D17B689B6A03F01003BE
:1016FC00002B05D17B689B6A43F400527B689A628D
:10170C007B681B689B6803F4E043B3F5E04F12D091
:10171C007B681B685B6803F48063002B25D17B68B6
:10172C001B689B6803F46023B3F5602F1DD17B68A5
:10173C001B7B002B19D17B681B685A687B681B6864
:10174C0022F080025A607B689B6A23F480527B688B
:10175C009A627B689B6A03F48073002B05D17B68CB
:10176C009B6A43F001027B689A62786800F0CBF9BF
:10177C007B681B686FF00C021A607B681B685B68E7
:10178C0003F04003402B14D17B681B681B6803F0EB
:10179C000103012B0DD17B689B6A43F480327B687B
:1017AC009A62786800F012F87B681B686FF001028F
:1017BC001A6000BF0837BD4680BD80B483B000AF4F
:1017CC00786000BF0C37BD4680BC704780B483B0D6
:1017DC0000AF786000BF0C37BD4680BC704700007E
:1017EC0080B485B000AF786039600023FB730023B0
:1017FC00BB607B6893F82430012B01D10223DCE021
:10180C007B68012283F824203B685B68062B1CD87C
:10181C007B681B68596B3B685A6813469B001344E2
:10182C00053B1F2202FA03F3DB4319403B6818689F
:10183C003B685A6813469B001344053B00FA03F2BD
:10184C007B681B680A435A633CE03B685B680C2B63
:10185C001CD87B681B68196B3B685A6813469B0045
:10186C001344233B1F2202FA03F3DB4319403B686A
:10187C0018683B685A6813469B001344233B00FAD4
:10188C0003F27B681B680A431A631BE07B681B68C6
:10189C00D96A3B685A6813469B001344413B1F228C
:1018AC0002FA03F3DB4319403B6818683B685A683B
:1018BC0013469B001344413B00FA03F27B681B6800
:1018CC000A43DA623B681B68092B1CD97B681B68CE
:1018DC00D9683B681A6813465B0013441E3B072209
:1018EC0002FA03F3DB4319403B6898683B681A68BB
:1018FC0013465B0013441E3B00FA03F27B681B6823
:10190C000A43DA6019E07B681B6819693B681A683E
:10191C0013465B001344072202FA03F3DB4319401E
:10192C003B6898683B681A6813465B00134400FADE
:10193C0003F27B681B680A431A613B681B68102B17
:10194C0003D03B681B68112B32D17B681B681D4A86
:10195C00934225D17B681B689B6803F40003002B22
:10196C0026D17B681B689A687B681B6842F400026E
:10197C009A603B681B68102B1AD1134B1B68134AD7
:10198C00A2FB03239A0C13469B0013445B00BB6021
:10199C0002E0BB68013BBB60BB68002BF9D107E0E0
:1019AC007B689B6A43F020027B689A620123FB737D
:1019BC007B68002283F82420FB7B18461437BD4635
:1019CC0080BC7047002401400000002083DE1B43D4
:1019DC0080B584B000AF78600023FB600023BB604F
:1019EC007B681B689B6803F00103012B40D07B686C
:1019FC001B689A687B681B6842F001029A601F4B57
:101A0C001B681F4AA2FB03239B0CBB6002E0BB6854
:101A1C00013BBB60BB68002BF9D1FFF73DFBF860C5
:101A2C001FE0FFF739FB0246FB68D31A022B18D9CB
:101A3C007B681B689B6803F00103012B11D07B684A
:101A4C009B6A43F010027B689A627B68DB6A43F006
:101A5C0001027B68DA627B68002283F82420012370
:101A6C0007E07B681B689B6803F00103012BD8D14E
:101A7C00002318461037BD4680BD00BF0000002073
:101A8C0083DE1B4380B584B000AF78600023FB601D
:101A9C007B681B689B6803F00103012B2ED17B68CC
:101AAC001B689A687B681B6822F001029A60FFF73A
:101ABC00F3FAF8601BE0FFF7EFFA0246FB68D31A63
:101ACC00022B14D97B681B689B6803F00103012B64
:101ADC000DD17B689B6A43F010027B689A627B682D
:101AEC00DB6A43F001027B68DA62012307E07B6862
:101AFC001B689B6803F00103012BDCD00023184604
:101B0C001037BD4680BD80B483B000AF786000BF95
:101B1C000C37BD4680BC704780B485B000AF786090
:101B2C007B6803F00703FB600C4BDB68BB60BA6897
:101B3C004FF6FF031340BB60FB681A02BB681343EC
:101B4C0043F0BF6343F40033BB60044ABB68D3600B
:101B5C0000BF1437BD4680BC704700BF00ED00E0ED
:101B6C0080B400AF044BDB681B0A03F00703184674
:101B7C00BD4680BC704700BF00ED00E080B483B070
:101B8C0000AF0346FB7197F90730002B0BDBFB7999
:101B9C0003F01F02064997F907305B09012000FA90
:101BAC0002F241F8232000BF0C37BD4680BC7047C1
:101BBC0000E100E080B483B000AF0346FB7197F9FD
:101BCC000730002B12DBFB7903F01F020A4997F94F
:101BDC0007305B09012000FA02F2203341F8232080
:101BEC00BFF34F8F00BFBFF36F8F00BF00BF0C3729
:101BFC00BD4680BC704700BF00E100E080B483B0FC
:101C0C0000AF03463960FB7197F90730002B0ADBF4
:101C1C003B68DAB20C4997F907301201D2B20B4487
:101C2C0083F800230AE03B68DAB20849FB7903F039
:101C3C000F03043B1201D2B20B441A7600BF0C37CF
:101C4C00BD4680BC704700BF00E100E000ED00E045
:101C5C0080B489B000AFF860B9607A60FB6803F0BB
:101C6C000703FB61FB69C3F10703042B28BF0423A3
:101C7C00BB61FB690433062B02D9FB69033B00E013
:101C8C0000237B614FF0FF32BB6902FA03F3DA43A6
:101C9C00BB681A407B699A404FF0FF317B6901FAAF
:101CAC0003F3D9437B680B40134318462437BD46D6
:101CBC0080BC704780B582B000AF78607B68013B18
:101CCC00B3F1807F01D301230FE00A4A7B68013B0B
:101CDC0053600F214FF0FF30FFF790FF054B0022B0
:101CEC009A60044B07221A60002318460837BD4639
:101CFC0080BD00BF10E000E080B582B000AF78601E
:101D0C007868FFF709FF00BF0837BD4680BD80B576
:101D1C0086B000AF0346B9607A60FB7300237B6129
:101D2C00FFF71EFF78617A68B9687869FFF790FF52
:101D3C00024697F90F3011461846FFF75FFF00BFB8
:101D4C001837BD4680BD80B582B000AF0346FB712D
:101D5C0097F907301846FFF711FF00BF0837BD464B
:101D6C0080BD80B582B000AF0346FB7197F9073098
:101D7C001846FFF71FFF00BF0837BD4680BD80B572
:101D8C0082B000AF78607868FFF794FF034618467E
:101D9C000837BD4680BD80B485B000AF78600023A5
:101DAC00FB737B6893F82130022B08D07B680422EC
:101DBC009A637B68002283F82020012320E07B6853
:101DCC001B681A687B681B6822F00E021A607B681D
:101DDC001B681A687B681B6822F001021A607B681A
:101DEC001A6C7B68DB6B012101FA02F25A607B688A
:101DFC00012283F821207B68002283F82020FB7BC2
:101E0C0018461437BD4680BC7047000080B584B0BE
:101E1C0000AF78600023FB737B6893F82130022BB2
:101E2C0005D07B6804229A630123FB7351E07B6825
:101E3C001B681A687B681B6822F00E021A607B68AC
:101E4C001B681A687B681B6822F001021A607B68A9
:101E5C001B68224A934229D07B681B68204A934214
:101E6C0022D07B681B681F4A93421AD07B681B6880
:101E7C001D4A934212D07B681B681C4A93420AD0BD
:101E8C007B681B681A4A934202D14FF480130EE010
:101E9C004FF080730BE04FF4803308E04FF4805325
:101EAC0005E04FF4807302E0102300E00123114A97
:101EBC0053607B68012283F821207B68002283F821
:101ECC0020207B685B6B002B03D07B685B6B786896
:101EDC009847FB7B18461037BD4680BD0800024072
:101EEC001C000240300002404400024058000240F6
:101EFC006C0002400000024080B48BB000AF7860F0
:101F0C00396000237B6200233B6269E101227B6A1A
:101F1C0002FA03F3FB613B681B68FA691340BB616F
:101F2C00BA69FB699A4240F058813B685B689A4AEF
:101F3C0093425ED0984A934275D8984A934258D0AF
:101F4C00964A93426FD8964A934252D0944A9342FF
:101F5C0069D8944A93424CD0924A934263D8924A9D
:101F6C00934246D0904A93425DD8122B2AD8122B1A
:101F7C0059D801A252F823F0FF1F0008D91F0008FE
:101F8C00EB1F00082D200008332000083320000828
:101F9C0033200008332000083320000833200008C9
:101FAC0033200008332000083320000833200008B9
:101FBC00332000083320000833200008E11F0008FC
:101FCC00F51F0008794A934213D02CE03B68DB687C
:101FDC003B6229E03B68DB6804333B6224E03B68EE
:101FEC00DB6808333B621FE03B68DB680C333B6209
:101FFC001AE03B689B68002B02D104233B6213E080
:10200C003B689B68012B05D108233B627B68FA690E
:10201C001A6109E008233B627B68FA695A6103E0A4
:10202C0000233B6200E000BFBB69FF2B01D87B683B
:10203C0001E07B6804337B61BB69FF2B02D87B6AB0
:10204C009B0002E07B6A083B9B003B617B691A6842
:10205C000F213B6901FA03F3DB431A40396A3B69F0
:10206C0001FA03F31A437B691A603B685B6803F05F
:10207C008053002B00F0B1804D4B9B694C4A43F0D0
:10208C00010393614A4B9B6903F00103BB60BB687E
:10209C00484A7B6A9B08023352F82330FB607B6A08
:1020AC0003F003039B000F2202FA03F3DB43FA68ED
:1020BC001340FB607B68404A934213D07B683F4AD5
:1020CC0093420DD07B683E4A934207D07B683D4AD1
:1020DC00934201D1032306E0042304E0022302E02F
:1020EC00012300E000237A6A02F00302920093407D
:1020FC00FA681343FB602F497B6A9B080233FA682A
:10210C0041F823203B685B6803F48033002B06D036
:10211C002D4B1A682C49BB6913430B6006E02A4B04
:10212C001A68BB69DB43284913400B603B685B684A
:10213C0003F40033002B06D0234B5A682249BB69A9
:10214C0013434B6006E0204B5A68BB69DB431E49C6
:10215C0013404B603B685B6803F48013002B06D084
:10216C00194B9A681849BB6913438B6006E0164BF0
:10217C009A68BB69DB43144913408B603B685B680E
:10218C0003F40013002B21D00F4BDA680E49BB6906
:10219C001343CB6021E000BF00003210000031106F
:1021AC00000022100000211000001210000011107D
:1021BC00001002400000014000080140000C0140EA
:1021CC000010014000140140000401400B4BDA6880
:1021DC00BB69DB4309491340CB607B6A01337B62EB
:1021EC003B681A687B6A22FA03F3002B7FF48EAEED
:1021FC0000BF00BF2C37BD4680BC704700040140B7
:10220C0080B489B000AF786039600023FB619AE03C
:10221C000122FB6902FA03F33A681340BB61BB6904
:10222C00002B00F08D804E4AFB699B08023352F85C
:10223C0023307B61FB6903F003039B000F2202FA3E
:10224C0003F37A6913407B617B68464A934213D04F
:10225C007B68454A93420DD07B68444A934207D031
:10226C007B68434A934201D1032306E0042304E034
:10227C00022302E0012300E00023FA6902F00302CA
:10228C00920093407A699A4232D1FB6903F00303BE
:10229C009B000F2202FA03F37B61314AFB699B0816
:1022AC00023352F823107B69DA432D48FB699B08F3
:1022BC000A40023340F823202E4B1A68BB69DB43DB
:1022CC002C4913400B602B4B5A68BB69DB432949E3
:1022DC0013404B60274B9A68BB69DB43254913407D
:1022EC008B60244BDA68BB69DB4322491340CB601B
:1022FC00BB69FF2B01D87B6801E07B6804333B6131
:10230C00BB69FF2B02D8FB699B0002E0FB69083B11
:10231C009B00FB603B691A680F21FB6801FA03F311
:10232C00DB431A400421FB6801FA03F31A433B69AF
:10233C001A607B68DA68BB69DB431A407B68DA6039
:10234C00FB690133FB613A68FB6922FA03F3002B4A
:10235C007FF45EAF00BF00BF2437BD4680BC704722
:10236C000000014000080140000C01400010014039
:10237C00001401400004014080B485B000AF7860C7
:10238C000B467B807B689A687B881340002B02D0BD
:10239C000123FB7301E00023FB73FB7B184614370E
:1023AC00BD4680BC704780B483B000AF78600B46EC
:1023BC007B8013467B707B78002B03D07A887B68FC
:1023CC001A6103E07B881A047B681A6100BF0C3722
:1023DC00BD4680BC704780B485B000AF78600B46BA
:1023EC007B807B68DB68FB607A88FB6813401A048F
:1023FC00FB68D9437B880B401A437B681A6100BF8A
:10240C001437BD4680BC704780B582B000AF034620
:10241C00FB80084B5A69FB881340002B06D0054AF9
:10242C00FB885361FB88184602F004FE00BF083796
:10243C00BD4680BD0004014080B586B000AF786019
:10244C007B68002B01D1012372E27B681B6803F0CF
:10245C000103002B00F08780924B5B6803F00C03A8
:10246C00042B0CD08F4B5B6803F00C03082B12D1A0
:10247C008C4B5B6803F48033B3F5803F0BD1894BF5
:10248C001B6803F40033002B6CD07B685B68002B5B
:10249C0068D101234CE27B685B68B3F5803F06D1C1
:1024AC00804B1B687F4A43F4803313602EE07B68BB
:1024BC005B68002B0CD17B4B1B687A4A23F480336E
:1024CC001360784B1B68774A23F4802313601DE05C
:1024DC007B685B68B3F5A02F0CD1724B1B68714AFB
:1024EC0043F4802313606F4B1B686E4A43F48033B4
:1024FC0013600BE06B4B1B686A4A23F48033136048
:10250C00684B1B68674A23F4802313607B685B6805
:10251C00002B13D0FEF7C0FD386108E0FEF7BCFDC0
:10252C0002463B69D31A642B01D9032300E25D4BAD
:10253C001B6803F40033002BF0D014E0FEF7ACFD65
:10254C00386108E0FEF7A8FD02463B69D31A642BFC
:10255C0001D90323ECE1534B1B6803F40033002B2C
:10256C00F0D100E000BF7B681B6803F00203002B76
:10257C0063D04C4B5B6803F00C03002B0BD0494B26
:10258C005B6803F00C03082B1CD1464B5B6803F40F
:10259C008033002B16D1434B1B6803F00203002B36
:1025AC0005D07B681B69012B01D00123C0E13D4B99
:1025BC001B6823F0F8027B685B69DB003949134325
:1025CC000B603AE07B681B69002B20D0364B012254
:1025DC001A60FEF761FD386108E0FEF75DFD02460A
:1025EC003B69D31A022B01D90323A1E12D4B1B68A4
:1025FC0003F00203002BF0D02A4B1B6823F0F802E7
:10260C007B685B69DB00274913430B6015E0264BA5
:10261C0000221A60FEF740FD386108E0FEF73CFD31
:10262C0002463B69D31A022B01D9032380E11D4BCF
:10263C001B6803F00203002BF0D17B681B6803F0CE
:10264C000803002B3AD07B689B69002B19D0174BE1
:10265C0001221A60FEF720FD386108E0FEF71CFD30
:10266C0002463B69D31A022B01D9032360E10D4BBF
:10267C005B6A03F00203002BF0D0012000F0D8FAC3
:10268C001CE00A4B00221A60FEF706FD38610FE0D1
:10269C00FEF702FD02463B69D31A022B08D903232D
:1026AC0046E100BF0010024000004242800442425A
:1026BC00924B5B6A03F00203002BE9D17B681B6829
:1026CC0003F00403002B00F0A6800023FB758B4B5A
:1026DC00DB6903F08053002B0DD1884BDB69874AF3
:1026EC0043F08053D361854BDB6903F08053BB60AF
:1026FC00BB680123FB75824B1B6803F48073002BB2
:10270C0018D17F4B1B687E4A43F480731360FEF72D
:10271C00C3FC386108E0FEF7BFFC02463B69D31AE4
:10272C00642B01D9032303E1754B1B6803F48073FD
:10273C00002BF0D07B68DB68012B06D16F4B1B6A3A
:10274C006E4A43F0010313622DE07B68DB68002BBB
:10275C000CD16A4B1B6A694A23F001031362674B65
:10276C001B6A664A23F0040313621CE07B68DB6877
:10277C00052B0CD1614B1B6A604A43F004031362B6
:10278C005E4B1B6A5D4A43F0010313620BE05B4B2B
:10279C001B6A5A4A23F001031362584B1B6A574AAF
:1027AC0023F0040313627B68DB68002B15D0FEF763
:1027BC0073FC38610AE0FEF76FFC02463B69D31AE2
:1027CC0041F28832934201D90323B1E04B4B1B6A8F
:1027DC0003F00203002BEED014E0FEF75DFC386131
:1027EC000AE0FEF759FC02463B69D31A41F28832E3
:1027FC00934201D903239BE0404B1B6A03F0020375
:10280C00002BEED1FB7D012B05D13C4BDB693B4A08
:10281C0023F08053D3617B68DB69002B00F0878049
:10282C00364B5B6803F00C03082B61D07B68DB69CB
:10283C00022B46D1334B00221A60FEF72DFC386177
:10284C0008E0FEF729FC02463B69D31A022B01D99A
:10285C0003236DE0294B1B6803F00073002BF0D1B0
:10286C007B681B6AB3F5803F08D1244B5B6823F46B
:10287C0000327B689B68214913434B601F4B5B689C
:10288C0023F474127B68196A7B685B6A0B431B49DF
:10289C0013434B601B4B01221A60FEF7FDFB3861A2
:1028AC0008E0FEF7F9FB02463B69D31A022B01D96B
:1028BC0003233DE0114B1B6803F00073002BF0D099
:1028CC0035E0104B00221A60FEF7E6FB386108E099
:1028DC00FEF7E2FB02463B69D31A022B01D9032314
:1028EC0026E0064B1B6803F00073002BF0D11EE0B2
:1028FC007B68DB69012B07D1012319E00010024032
:10290C0000700040600042420B4B5B68FB60FB6850
:10291C0003F480327B681B6A9A4206D1FB6803F48D
:10292C0070127B685B6A9A4201D0012300E000239D
:10293C0018461837BD4680BD0010024080B584B0E3
:10294C0000AF786039607B68002B01D10123D0E0A7
:10295C006A4B1B6803F007033A689A4210D9674B1D
:10296C001B6823F0070265493B6813430B60634BFC
:10297C001B6803F007033A689A4201D00123B8E0C0
:10298C007B681B6803F00203002B20D07B681B685C
:10299C0003F00403002B05D0594B5B68584A43F4F1
:1029AC00E06353607B681B6803F00803002B05D0C1
:1029BC00534B5B68524A43F460535360504B5B6813
:1029CC0023F0F0027B689B684D4913434B607B6896
:1029DC001B6803F00103002B40D07B685B68012B64
:1029EC0007D1474B1B6803F40033002B15D101238F
:1029FC007FE07B685B68022B07D1414B1B6803F0BF
:102A0C000073002B09D1012373E03D4B1B6803F0CD
:102A1C000203002B01D101236BE0394B5B6823F0DF
:102A2C0003027B685B68364913434B60FEF734FB4B
:102A3C00F8600AE0FEF730FB0246FB68D31A41F25D
:102A4C008832934201D9032353E02D4B5B6803F08A
:102A5C000C027B685B689B009A42EBD1274B1B688E
:102A6C0003F007033A689A4210D2244B1B6823F0F8
:102A7C00070222493B6813430B60204B1B6803F091
:102A8C0007033A689A4201D0012332E07B681B6845
:102A9C0003F00403002B08D0194B5B6823F4E062AD
:102AAC007B68DB68164913434B607B681B6803F03B
:102ABC000803002B09D0124B5B6823F460527B682F
:102ACC001B69DB000E4913434B6000F021F80246F2
:102ADC000B4B5B681B0903F00F030A49CB5C22FA12
:102AEC0003F3094A1360094B1B681846FEF792FA68
:102AFC00002318461037BD4680BD00BF00200240A1
:102B0C0000100240E85300080000002004000020E0
:102B1C0090B48AB000AF294B3C1D0FCB84E80F005A
:102B2C0040F201233B800023FB610023BB610023A7
:102B3C007B6200237B6100233B62214B5B68FB6162
:102B4C00FB6903F00C03042B02D0082B03D02BE001
:102B5C001C4B3B622BE0FB699B0C03F00F032833EF
:102B6C003B4413F8243C7B61FB6903F48033002B5A
:102B7C0012D0134B5B685B0C03F0010328333B440E
:102B8C0013F8283CBB617B690E4A03FB02F2BB695C
:102B9C00B2FBF3F37B6204E07B690B4A02FB03F3A9
:102BAC007B627B6A3B6202E0064B3B6200BF3B6A86
:102BBC0018462837BD4690BC704700BFC853000864
:102BCC000010024000127A0000093D0080B400AFF2
:102BDC00024B1B681846BD4680BC704700000020A5
:102BEC0080B500AFFFF7F2FF0246054B5B681B0A8E
:102BFC0003F007030349CB5C22FA03F3184680BDAC
:102C0C0000100240F853000880B500AFFFF7DEFF5C
:102C1C000246054B5B68DB0A03F007030349CB5CF8
:102C2C0022FA03F3184680BD00100240F853000846
:102C3C0080B485B000AF78600A4B1B680A4AA2FBCF
:102C4C0003235B0A7A6802FB03F3FB6000BFFB689B
:102C5C005A1EFA60002BF9D100BF00BF1437BD46D5
:102C6C0080BC704700000020D34D621080B586B048
:102C7C0000AF786000233B610023FB607B681B681E
:102C8C0003F00103002B7DD00023FB754F4BDB6958
:102C9C0003F08053002B0DD14C4BDB694B4A43F0B6
:102CAC008053D361494BDB6903F08053BB60BB6835
:102CBC000123FB75464B1B6803F48073002B18D162
:102CCC00434B1B68424A43F480731360FEF7E4F9EC
:102CDC00386108E0FEF7E0F902463B69D31A642B31
:102CEC0001D903236DE03A4B1B6803F48073002B6E
:102CFC00F0D0364B1B6A03F44073FB60FB68002B6F
:102D0C002ED07B685B6803F44073FA689A4227D034
:102D1C002E4B1B6A23F44073FB602E4B01221A606E
:102D2C002C4B00221A60294AFB681362FB6803F0E3
:102D3C000103002B14D0FEF7AFF938610AE0FEF75F
:102D4C00ABF902463B69D31A41F28832934201D95E
:102D5C00032336E01D4B1B6A03F00203002BEED05D
:102D6C001A4B1B6A23F440727B685B681749134348
:102D7C000B62FB7D012B05D1144BDB69134A23F04D
:102D8C008053D3617B681B6803F00203002B08D0CF
:102D9C000E4B5B6823F440427B689B680B491343E2
:102DAC004B607B681B6803F01003002B08D0074BAB
:102DBC005B6823F480027B68DB68044913434B6037
:102DCC00002318461837BD4680BD00BF00100240D6
:102DDC00007000404004424290B58DB000AF786066
:102DEC00584B07F10C040FCB84E80F0040F2012381
:102DFC003B8100237B620023FB6200233B620023A8
:102E0C00FB610023BB627B68102B0AD07B68102B04
:102E1C0000F28E807B68012B49D07B68022B79D025
:102E2C0086E0494B5B68FB61474B1B6803F0807382
:102E3C00002B7FD0FB699B0C03F00F0330333B441A
:102E4C0013F8243C3B62FB6903F48033002B17D04E
:102E5C003D4B5B685B0C03F0010330333B4413F8D0
:102E6C00283C7B62FB6903F48033002B0DD0374A7E
:102E7C007B6AB2FBF3F23B6A02FB03F3FB6204E0F6
:102E8C003B6A334A02FB03F3FB622F4B5B6803F490
:102E9C008003B3F5800F02D1FB6ABB624AE0FB6A88
:102EAC005B002C4AA2FB03235B08BB6242E0264B6F
:102EBC001B6AFB61FB6903F44073B3F5807F08D197
:102ECC00FB6903F00203002B03D04FF40043BB62F9
:102EDC001FE0FB6903F44073B3F5007F09D11A4B73
:102EEC005B6A03F00203002B03D049F64043BB623C
:102EFC000FE0FB6903F44073B3F5407F1CD1124B18
:102F0C001B6803F40033002B16D04FF22443BB6232
:102F1C0012E011E0FFF778FE02460B4B5B689B0B4F
:102F2C0003F0030301335B00B2FBF3F3BB6204E079
:102F3C0000BF02E000BF00E000BFBB6A1846343798
:102F4C00BD4690BDD85300080010024000127A0014
:102F5C0000093D00ABAAAAAA80B582B000AF786088
:102F6C007B68002B01D1012376E07B685B6A002B28
:102F7C0008D17B685B68B3F5827F09D07B6800223F
:102F8C00DA6105E07B6800221A617B6800225A61D5
:102F9C007B6800229A627B6893F85130DBB2002B7D
:102FAC0006D17B68002283F850207868FDF7A4FDD9
:102FBC007B68022283F851207B681B681A687B6847
:102FCC001B6822F040021A607B685B6803F4827213
:102FDC007B689B6803F404431A437B68DB6803F447
:102FEC0000631A437B681B6903F002031A437B6876
:102FFC005B6903F001031A437B689B6903F400735C
:10300C001A437B68DB6903F038031A437B681B6A3D
:10301C0003F0800342EA03017B689B6A03F40052CD
:10302C007B681B680A431A607B689B691A0C7B6877
:10303C001B6802F004025A607B681B68DA697B68C3
:10304C001B6822F40062DA617B6800225A657B6897
:10305C00012283F85120002318460837BD4680BD55
:10306C0080B582B000AF78607B68002B01D1012362
:10307C001AE07B68022283F851207B681B681A686F
:10308C007B681B6822F040021A607868FDF7C2FD6D
:10309C007B6800225A657B68002283F851207B688C
:1030AC00002283F85020002318460837BD4680BD07
:1030BC0080B487B000AFF860B9607A607B80002381
:1030CC00FB75FB6893F85030012B01D1022375E09E
:1030DC00FB68012283F85020FB6893F85130BB75D4
:1030EC00FB685B683B61BB7D012B0DD03B69B3F585
:1030FC00827F06D1FB689B68002B02D1BB7D042B21
:10310C0002D00223FB7554E0BB68002B05D07B6812
:10311C00002B02D07B88002B02D10123FB7548E0E9
:10312C00FB6893F85130DBB2042B03D0FB6805220B
:10313C0083F85120FB6800225A65FB68BA681A6351
:10314C00FB687A889A86FB687A88DA86FB687A68E4
:10315C009A63FB687A889A87FB687A88DA87FB68B7
:10316C00DB68002B06D0FB68174A1A64FB68174A09
:10317C005A6405E0FB68164A1A64FB68154A5A64DF
:10318C00FB681B685A68FB681B6842F0E0025A60D7
:10319C00FB681B681B6803F04003402B08D0FB68DE
:1031AC001B681A68FB681B6842F040021A6000E05A
:1031BC0000BFFB68002283F85020FB7D18461C37AB
:1031CC00BD4680BC704700BFAF3400080F35000807
:1031DC00EB3300084F34000880B588B000AF78603E
:1031EC007B681B685B68FB617B681B689B68BB61C9
:1031FC00BB699B0903F00103002B0FD1BB6903F0E2
:10320C000103002B0AD0FB699B0903F00103002B7F
:10321C0004D07B681B6C78689847BEE0BB695B0880
:10322C0003F00103002B0AD0FB69DB0903F0010357
:10323C00002B04D07B685B6C78689847ADE0BB6969
:10324C005B0903F00103002B06D1BB699B0903F05A
:10325C000103002B00F0A180FB695B0903F0010363
:10326C00002B00F09A80BB699B0903F00103002B33
:10327C0023D07B6893F85130DBB2032B11D07B68E1
:10328C005B6D43F004027B685A6500237B617B68AD
:10329C001B68DB687B617B681B689B687B617B6957
:1032AC000BE000233B617B681B68DB683B617B6840
:1032BC001B689B683B613B696FE0BB695B0903F072
:1032CC000103002B14D07B685B6D43F001027B681B
:1032DC005A650023FB607B681B689B68FB607B68FE
:1032EC001B681A687B681B6822F040021A60FB6836
:1032FC007B685B6D002B4FD07B681B685A687B68C2
:10330C001B6822F0E0025A607B68012283F851208E
:10331C00FB6903F00203002B04D1FB6903F00103EA
:10332C00002B34D07B681B685A687B681B6822F0C2
:10333C0003025A607B68DB6C002B11D07B68DB6C62
:10334C00174A5A637B68DB6C1846FEF75FFD034631
:10335C00002B05D07B685B6D43F040027B685A659F
:10336C007B689B6C002B16D07B689B6C0C4A5A6359
:10337C007B689B6C1846FEF749FD0346002B0AD070
:10338C007B685B6D43F040027B685A6503E07868AC
:10339C0001F086FF00E000BF00BF2037BD4680BDB6
:1033AC00C333000880B483B000AF786000BF0C3723
:1033BC00BD4680BC704780B584B000AF78607B6838
:1033CC005B6AFB60FB680022DA87FB680022DA8606
:1033DC00F86801F065FF00BF1037BD4680BD80B5B1
:1033EC0082B000AF78607B681B6803F10C027B68CD
:1033FC009B6B1278D2B21A707B689B6B5A1C7B68E1
:10340C009A637B68DB8F9BB2013B9AB27B68DA874D
:10341C007B68DB8F9BB2002B0FD17B681B685A68D3
:10342C007B681B6822F060025A607B68DB8E9BB263
:10343C00002B02D1786800F039F900BF0837BD467F
:10344C0080BD80B582B000AF78607B681A6B7B68FA
:10345C001B680C3312781A707B681B6B5A1C7B68C8
:10346C001A637B68DB8E9BB2013B9AB27B68DA866F
:10347C007B68DB8E9BB2002B0FD17B681B685A6874
:10348C007B681B6822F080025A607B68DB8F9BB2E2
:10349C00002B02D1786800F009F900BF0837BD464F
:1034AC0080BD80B582B000AF78607B681B68DA683D
:1034BC007B689B6B92B21A807B689B6B9A1C7B68B7
:1034CC009A637B68DB8F9BB2013B9AB27B68DA878D
:1034DC007B68DB8F9BB2002B0FD17B681B685A6813
:1034EC007B681B6822F040025A607B68DB8E9BB2C3
:1034FC00002B02D1786800F0D9F800BF0837BD4620
:10350C0080BD80B582B000AF78607B681B6B1A8879
:10351C007B681B68DA607B681B6B9A1C7B681A6380
:10352C007B68DB8E9BB2013B9AB27B68DA867B6848
:10353C00DB8E9BB2002B0FD17B681B685A687B68B3
:10354C001B6822F080025A607B68DB8F9BB2002BD9
:10355C0002D1786800F0AAF800BF0837BD4680BDDC
:10356C0080B588B000AFF860B9603B601346FB7162
:10357C00FDF792FD0246BB6A9B1A3A681344FB6145
:10358C00FDF78AFDB861394B1B685B011B0DFA69AD
:10359C0002FB03F37B6154E03B68B3F1FF3F50D077
:1035AC00FDF77AFD0246BB69D31AFA699A4202D931
:1035BC00FB69002B3DD1FB681B685A68FB681B68D4
:1035CC0022F0E0025A60FB685B68B3F5827F11D190
:1035DC00FB689B68B3F5004F04D0FB689B68B3F5A0
:1035EC00806F07D1FB681B681A68FB681B6822F0A8
:1035FC0040021A60FB689B6AB3F5005F0FD1FB6851
:10360C001B681A68FB681B6822F400521A60FB687E
:10361C001B681A68FB681B6842F400521A60FB684E
:10362C00012283F85120FB68002283F850200323E9
:10363C0017E07B69002B01D10023FB617B69013B07
:10364C007B61FB681B689A68BB681340BA689A4236
:10365C000CBF01230023DBB21A46FB799A429BD1A3
:10366C00002318462037BD4680BD00BF0000002057
:10367C0080B586B002AFF860B9607A607B68009361
:10368C00BB6800228021F868FFF76AFF0346002B15
:10369C0007D0FB685B6D43F02002FB685A6503237F
:1036AC0000E0002318461037BD4680BD80B586B0BB
:1036BC0000AF7860354B1B68354AA2FB03235B0ACD
:1036CC00642202FB03F33B61FDF7E6FC78617B6847
:1036DC001B685A687B681B6822F020025A603B69A1
:1036EC00002B06D17B685B6D43F020027B685A652A
:1036FC0009E03B69013B3B617B681B689B6803F0FD
:10370C000203002BEBD07A6964217868FFF7B0FFD5
:10371C000346002B05D07B685B6D43F020027B6871
:10372C005A657B689B68002B0AD10023FB607B6881
:10373C001B68DB68FB607B681B689B68FB60FB6835
:10374C007B685B6D002B15D17B6893F85130DBB235
:10375C00042B07D17B68012283F851207868FFF78E
:10376C0021FE0EE07B68012283F85120786801F07D
:10377C0063FD06E07B68012283F85120786801F034
:10378C008FFD00BF1837BD4680BD00BF0000002074
:10379C00F119760580B582B000AF78607B68002B9C
:1037AC0001D1012341E07B6893F83D30DBB2002B63
:1037BC0006D17B68002283F83C207868FDF760FA1C
:1037CC007B68022283F83D207B681A687B6804338F
:1037DC001946104600F006FC7B68012283F846204F
:1037EC007B68012283F83E207B68012283F83F200E
:1037FC007B68012283F840207B68012283F84120FA
:10380C007B68012283F842207B68012283F84320E5
:10381C007B68012283F844207B68012283F84520D1
:10382C007B68012283F83D20002318460837BD46EB
:10383C0080BD80B483B000AF78607B681B681A6A67
:10384C0041F211131340002B0FD17B681B681A6ACD
:10385C0040F244431340002B07D17B681B681A6865
:10386C007B681B6822F001021A607B68012283F8D6
:10387C003D20002318460C37BD4680BC7047000025
:10388C0080B485B000AF78607B6893F83D30DBB2D4
:10389C00012B01D001233AE07B68022283F83D2002
:1038AC007B681B68DA687B681B6842F00102DA608F
:1038BC007B681B68184A93420ED07B681B68B3F177
:1038CC00804F09D07B681B68144A934204D07B68F4
:1038DC001B68134A934211D17B681B689B6803F0E9
:1038EC000703FB60FB68062B10D07B681B681A680B
:1038FC007B681B6842F001021A6007E07B681B685A
:10390C001A687B681B6842F001021A600023184693
:10391C001437BD4680BC7047002C014000040040A9
:10392C000008004080B582B000AF78607B68002B47
:10393C0001D1012341E07B6893F83D30DBB2002BD1
:10394C0006D17B68002283F83C20786800F039F8B7
:10395C007B68022283F83D207B681A687B680433FD
:10396C001946104600F03EFB7B68012283F8462086
:10397C007B68012283F83E207B68012283F83F207C
:10398C007B68012283F840207B68012283F8412068
:10399C007B68012283F842207B68012283F8432054
:1039AC007B68012283F844207B68012283F8452040
:1039BC007B68012283F83D20002318460837BD465A
:1039CC0080BD80B483B000AF786000BF0C37BD46BB
:1039DC0080BC704780B582B000AF786039607B687E
:1039EC00002B01D1012341E07B6893F83D30DBB221
:1039FC00002B06D17B68002283F83C20786800F00D
:103A0C0039F87B68022283F83D207B681A687B6852
:103A1C0004331946104600F0E5FA7B681B681A68F7
:103A2C007B681B6822F008021A607B681B681968A7
:103A3C007B681B683A680A431A607B68012283F82A
:103A4C0046207B68012283F83E207B68012283F8A4
:103A5C003F207B68012283F842207B68012283F897
:103A6C0043207B68012283F83D2000231846083749
:103A7C00BD4680BD80B483B000AF786000BF0C370A
:103A8C00BD4680BC704780B582B000AF78607B6863
:103A9C001B681B6903F00203022B22D17B681B6895
:103AAC00DB6803F00203022B1BD17B681B686FF0F1
:103ABC0002021A617B6801221A777B681B689B697A
:103ACC0003F00303002B03D0786800F070FA05E0D4
:103ADC00786800F063FA786800F072FA7B6800226C
:103AEC001A777B681B681B6903F00403042B22D133
:103AFC007B681B68DB6803F00403042B1BD17B6819
:103B0C001B686FF004021A617B6802221A777B68CB
:103B1C001B689B6903F44073002B03D0786800F09A
:103B2C0046FA05E0786800F039FA786800F048FA4F
:103B3C007B6800221A777B681B681B6903F00803FB
:103B4C00082B22D17B681B68DB6803F00803082B69
:103B5C001BD17B681B686FF008021A617B6804221A
:103B6C001A777B681B68DB6903F00303002B03D017
:103B7C00786800F01CFA05E0786800F00FFA7868B5
:103B8C0000F01EFA7B6800221A777B681B681B69A1
:103B9C0003F01003102B22D17B681B68DB6803F049
:103BAC001003102B1BD17B681B686FF010021A617D
:103BBC007B6808221A777B681B68DB6903F4407307
:103BCC00002B03D0786800F0F2F905E0786800F07B
:103BDC00E5F9786800F0F4F97B6800221A777B68C5
:103BEC001B681B6903F00103012B0ED17B681B685A
:103BFC00DB6803F00103012B07D17B681B686FF0B6
:103C0C0001021A617868FCF7FDFA7B681B681B6976
:103C1C0003F08003802B0ED17B681B68DB6803F0FC
:103C2C008003802B07D17B681B686FF080021A61C0
:103C3C00786800F0BEFC7B681B681B6903F04003CE
:103C4C00402B0ED17B681B68DB6803F04003402BD4
:103C5C0007D17B681B686FF040021A61786800F02E
:103C6C00B8F97B681B681B6903F02003202B0ED16D
:103C7C007B681B68DB6803F02003202B07D17B6873
:103C8C001B686FF020021A61786800F089FC00BF95
:103C9C000837BD4680BD000080B584B000AFF86029
:103CAC00B9607A60FB6893F83C30012B01D1022398
:103CBC00ACE0FB68012283F83C207B680C2B00F203
:103CCC009F8001A252F823F0093D00080D3E000828
:103CDC000D3E00080D3E0008493D00080D3E000851
:103CEC000D3E00080D3E00088B3D00080D3E0008FF
:103CFC000D3E00080D3E0008CB3D0008FB681B681C
:103D0C00B968184600F0D0F9FB681B689A69FB6823
:103D1C001B6842F008029A61FB681B689A69FB6891
:103D2C001B6822F004029A61FB681B689969BB68E6
:103D3C001A69FB681B680A439A6162E0FB681B689E
:103D4C00B968184600F016FAFB681B689A69FB689C
:103D5C001B6842F400629A61FB681B689A69FB68F5
:103D6C001B6822F480629A61FB681B689969BB68C6
:103D7C001B691A02FB681B680A439A6141E0FB68E5
:103D8C001B68B968184600F05FFAFB681B68DA69B3
:103D9C00FB681B6842F00802DA61FB681B68DA6991
:103DAC00FB681B6822F00402DA61FB681B68D969A6
:103DBC00BB681A69FB681B680A43DA6121E0FB687F
:103DCC001B68B968184600F0A9FAFB681B68DA6929
:103DDC00FB681B6842F40062DA61FB681B68DA69F5
:103DEC00FB681B6822F48062DA61FB681B68D96986
:103DFC00BB681B691A02FB681B680A43DA6100E0A6
:103E0C0000BFFB68002283F83C20002318461037C3
:103E1C00BD4680BD80B584B000AF786039607B68EA
:103E2C0093F83C30012B01D10223B3E07B680122D3
:103E3C0083F83C207B68022283F83D207B681B685A
:103E4C009B68FB60FB6823F07703FB60FB6823F443
:103E5C007F43FB607B681B68FA689A603B681B6851
:103E6C00B3F5005F3ED0B3F5005F00F28780B3F589
:103E7C00805F00F08580B3F5805F7FD8702B1AD0FF
:103E8C00702B7BD8602B50D0602B77D8502B3CD02C
:103E9C00502B73D8402B58D0402B6FD8302B64D07C
:103EAC00302B6BD8202B60D0202B67D8002B5CD00C
:103EBC00102B5AD062E07B6818683B6899683B68A5
:103ECC005A683B68DB6800F0EEFA7B681B689B68FD
:103EDC00FB60FB6843F07703FB607B681B68FA6848
:103EEC009A604EE07B6818683B6899683B685A6832
:103EFC003B68DB6800F0D7FA7B681B689A687B68C4
:103F0C001B6842F480429A603BE07B6818683B680F
:103F1C0059683B68DB681A4600F04EFA7B681B68F0
:103F2C005021184600F0A5FA2BE07B6818683B6816
:103F3C0059683B68DB681A4600F06CFA7B681B68B2
:103F4C006021184600F095FA1BE07B6818683B6806
:103F5C0059683B68DB681A4600F02EFA7B681B68D0
:103F6C004021184600F085FA0BE07B681A683B6824
:103F7C001B681946104600F07CFA02E000BF00E016
:103F8C0000BF7B68012283F83D207B68002283F808
:103F9C003C20002318461037BD4680BD80B483B04A
:103FAC0000AF786000BF0C37BD4680BC704780B452
:103FBC0083B000AF786000BF0C37BD4680BC704743
:103FCC0080B483B000AF786000BF0C37BD4680BCB6
:103FDC00704780B483B000AF786000BF0C37BD462B
:103FEC0080BC704780B485B000AF786039607B6866
:103FFC001B68FB607B68294A93420BD07B68B3F14A
:10400C00804F07D07B68264A934203D07B68254AB1
:10401C00934208D1FB6823F07003FB603B685B683C
:10402C00FA681343FB607B681C4A93420BD07B6895
:10403C00B3F1804F07D07B68194A934203D07B6859
:10404C00184A934208D1FB6823F44073FB603B6829
:10405C00DB68FA681343FB60FB6823F080023B6863
:10406C005B691343FB607B68FA681A603B689A686B
:10407C007B68DA623B681A687B689A627B68074ADD
:10408C00934203D13B681A697B681A637B680122EF
:10409C005A6100BF1437BD4680BC7047002C0140EC
:1040AC00000400400008004080B487B000AF786086
:1040BC0039607B681B6A23F001027B681A627B689B
:1040CC001B6A7B617B685B683B617B689B69FB60FF
:1040DC00FB6823F07003FB60FB6823F00303FB60B9
:1040EC003B681B68FA681343FB607B6923F002038F
:1040FC007B613B689B687A6913437B617B681C4AD4
:10410C0093420CD17B6923F008037B613B68DB682D
:10411C007A6913437B617B6923F004037B617B68C1
:10412C00134A934211D13B6923F480733B613B6981
:10413C0023F400733B613B685B693A6913433B6151
:10414C003B689B693A6913433B617B683A695A60E7
:10415C007B68FA689A613B685A687B685A637B682B
:10416C007A691A6200BF1C37BD4680BC704700BF1D
:10417C00002C014080B487B000AF786039607B6858
:10418C001B6A23F010027B681A627B681B6A7B61D6
:10419C007B685B683B617B689B69FB60FB6823F415
:1041AC00E043FB60FB6823F44073FB603B681B68D7
:1041BC001B02FA681343FB607B6923F020037B61CD
:1041CC003B689B681B017A6913437B617B681D4AC2
:1041DC0093420DD17B6923F080037B613B68DB68E4
:1041EC001B017A6913437B617B6923F040037B617C
:1041FC007B68144A934213D13B6923F480633B617F
:10420C003B6923F400633B613B685B699B003A6943
:10421C0013433B613B689B699B003A6913433B61C9
:10422C007B683A695A607B68FA689A613B685A689D
:10423C007B689A637B687A691A6200BF1C37BD463B
:10424C0080BC7047002C014080B487B000AF786010
:10425C0039607B681B6A23F480727B681A627B6806
:10426C001B6A7B617B685B683B617B68DB69FB601D
:10427C00FB6823F07003FB60FB6823F00303FB6017
:10428C003B681B68FA681343FB607B6923F400737B
:10429C007B613B689B681B027A6913437B617B687B
:1042AC001D4A93420DD17B6923F400637B613B680B
:1042BC00DB681B027A6913437B617B6923F480639F
:1042CC007B617B68144A934213D13B6923F480537E
:1042DC003B613B6923F400533B613B685B691B0109
:1042EC003A6913433B613B689B691B013A69134371
:1042FC003B617B683A695A607B68FA68DA613B68B3
:10430C005A687B68DA637B687A691A6200BF1C376B
:10431C00BD4680BC704700BF002C014080B487B004
:10432C0000AF786039607B681B6A23F480527B682D
:10433C001A627B681B6A3B617B685B687B617B688C
:10434C00DB69FB60FB6823F4E043FB60FB6823F450
:10435C004073FB603B681B681B02FA681343FB60ED
:10436C003B6923F400533B613B689B681B033A6930
:10437C0013433B617B680F4A934209D17B6923F459
:10438C0080437B613B685B699B017A6913437B616A
:10439C007B687A695A607B68FA68DA613B685A68AC
:1043AC007B681A647B683A691A6200BF1C37BD4689
:1043BC0080BC7047002C014080B487B000AFF8601F
:1043CC00B9607A60FB681B6A7B61FB681B6A23F02F
:1043DC000102FB681A62FB689B693B613B6923F035
:1043EC00F0033B617B681B013A6913433B617B69BA
:1043FC0023F00A037B617A69BB6813437B61FB681A
:10440C003A699A61FB687A691A6200BF1C37BD462B
:10441C0080BC704780B487B000AFF860B9607A6038
:10442C00FB681B6A23F01002FB681A62FB689B692D
:10443C007B61FB681B6A3B617B6923F470437B6186
:10444C007B681B037A6913437B613B6923F0A003F0
:10445C003B61BB681B013A6913433B61FB687A699A
:10446C009A61FB683A691A6200BF1C37BD4680BC72
:10447C00704780B485B000AF786039607B689B680A
:10448C00FB60FB6823F07003FB603A68FB68134326
:10449C0043F00703FB607B68FA689A6000BF14372F
:1044AC00BD4680BC704780B487B000AFF860B9607F
:1044BC007A603B60FB689B687B617B6923F47F437C
:1044CC007B613B681A027B681A43BB6813437A69A9
:1044DC0013437B61FB687A699A6000BF1C37BD4649
:1044EC0080BC704780B485B000AF786039607B6861
:1044FC0093F83C30012B01D1022346E07B6801226A
:10450C0083F83C207B68022283F83D207B681B6883
:10451C005B68FB607B681B689B68BB60FB6823F077
:10452C007003FB603B681B68FA681343FB607B6895
:10453C001B68FA685A607B681B68164A93420ED057
:10454C007B681B68B3F1804F09D07B681B68124AEB
:10455C00934204D07B681B68104A93420CD1BB6811
:10456C0023F08003BB603B685B68BA681343BB6095
:10457C007B681B68BA689A607B68012283F83D20CF
:10458C007B68002283F83C20002318461437BD4674
:10459C0080BC7047002C0140000400400008004023
:1045AC0080B483B000AF786000BF0C37BD4680BCD0
:1045BC00704780B483B000AF786000BF0C37BD4645
:1045CC0080BC704780B582B000AF78607B68002BF0
:1045DC0001D101233FE07B6893F83D30DBB2002B27
:1045EC0006D17B68002283F83C207868FCF7FCFB42
:1045FC007B68242283F83D207B681B68DA687B6823
:10460C001B6822F40052DA60786800F085FC7B6845
:10461C001B681A697B681B6822F490421A617B68DC
:10462C001B685A697B681B6822F02A025A617B68F6
:10463C001B68DA687B681B6842F40052DA607B689E
:10464C0000221A647B68202283F83D207B6820229C
:10465C0083F83E20002318460837BD4680BD80B540
:10466C008AB002AFF860B9603B601346FB80002350
:10467C007B61FB6893F83D30DBB2202B7CD1BB68AF
:10468C00002B02D0FB88002B01D1012375E0FB68C5
:10469C0093F83C30012B01D102236EE0FB68012220
:1046AC0083F83C20FB6800221A64FB68212283F803
:1046BC003D20FCF7F1FC7861FB68FA889A84FB6872
:1046CC00FA88DA84FB689B68B3F5805F08D1FB68D5
:1046DC001B69002B04D10023FB61BB68BB6103E0A9
:1046EC00BB68FB610023BB61FB68002283F83C20A4
:1046FC002AE03B6800937B6900228021F86800F077
:10470C0038FA0346002B01D0032336E0FB69002B5B
:10471C000BD1BB691B881A46FB681B68C2F30802E5
:10472C005A60BB690233BB6107E0FB691A78FB680E
:10473C001B685A60FB690133FB61FB68DB8C9BB225
:10474C00013B9AB2FB68DA84FB68DB8C9BB2002BD2
:10475C00CFD13B6800937B6900224021F86800F0C0
:10476C0008FA0346002B01D0032306E0FB68202245
:10477C0083F83D20002300E0022318462037BD4675
:10478C0080BD80B584B000AFF860B9601346FB8083
:10479C00FB6893F83E30DBB2202B1DD1BB68002B9D
:1047AC0002D0FB88002B01D1012316E0FB6893F8A3
:1047BC003C30012B01D102230FE0FB68012283F86E
:1047CC003C20FB6800221A63FB881A46B968F8681B
:1047DC0000F019FA034600E0022318461037BD46D4
:1047EC0080BD000080B58AB000AF78607B681B6824
:1047FC001B687B627B681B68DB683B627B681B68A1
:10480C005B69FB610023BB6100237B617B6A03F066
:10481C000F03BB61BB69002B0DD17B6A03F0200336
:10482C00002B08D03B6A03F02003002B03D07868E0
:10483C0000F0C9FA7BE1BB69002B00F0B180FB6989
:10484C0003F00103002B05D13B6A03F49073002B9A
:10485C0000F0A6807B6A03F00103002B0AD03B6AB0
:10486C0003F48073002B05D07B681B6C43F00102B2
:10487C007B681A647B6A03F00403002B0AD0FB6983
:10488C0003F00103002B05D07B681B6C43F0020284
:10489C007B681A647B6A03F00203002B0AD0FB6965
:1048AC0003F00103002B05D07B681B6C43F0040262
:1048BC007B681A647B6A03F00803002B0FD03B6AF9
:1048CC0003F02003002B04D1FB6903F00103002B40
:1048DC0005D07B681B6C43F008027B681A647B680C
:1048EC001B6C002B00F01E817B6A03F02003002B55
:1048FC0007D03B6A03F02003002B02D0786800F04D
:10490C0062FA7B681B685B6903F04003002B14BFE1
:10491C0001230023DBB27B617B681B6C03F0080373
:10492C00002B02D17B69002B31D0786800F0A4F900
:10493C007B681B685B6903F04003002B23D07B680A
:10494C001B685A697B681B6822F040025A617B68BD
:10495C009B6B002B13D07B689B6B764A5A637B68EE
:10496C009B6B1846FDF752FA0346002B16D07B685A
:10497C009B6B5B6B7A68926B104698470EE078687D
:10498C0000F0E3F80AE0786800F0DFF806E07868F9
:10499C0000F0DBF87B6800221A64C3E000BFC1E0C2
:1049AC007B681B6B012B40F0A1807B6A03F010032A
:1049BC00002B00F09B803B6A03F01003002B00F0EF
:1049CC0095800023FB607B681B681B68FB607B6821
:1049DC001B685B68FB60FB687B681B685B6903F0AA
:1049EC004003002B4ED07B689B6B1B685B683B8243
:1049FC003B8A002B00F098807B689B8D3A8A9A4208
:104A0C0080F092807B683A8ADA857B689B6B9B6925
:104A1C00202B2BD07B681B68DA687B681B6822F420
:104A2C008072DA607B681B685A697B681B6822F0AD
:104A3C0001025A617B681B685A697B681B6822F00B
:104A4C0040025A617B68202283F83E207B6800225A
:104A5C001A637B681B68DA687B681B6822F010029B
:104A6C00DA607B689B6B1846FDF795F97B689A8D2D
:104A7C007B68DB8D9BB2D31A9BB21946786800F029
:104A8C006DF851E07B689A8D7B68DB8D9BB2D31AF5
:104A9C007B827B68DB8D9BB2002B47D07B8A002B03
:104AAC0044D07B681B68DA687B681B6822F49072C0
:104ABC00DA607B681B685A697B681B6822F001020C
:104ACC005A617B68202283F83E207B6800221A639F
:104ADC007B681B68DA687B681B6822F01002DA605E
:104AEC007B8A1946786800F039F81FE07B6A03F07E
:104AFC008003002B08D03B6A03F08003002B03D00B
:104B0C00786800F0F9F812E07B6A03F04003002BA0
:104B1C000DD03B6A03F04003002B08D0786800F0FE
:104B2C003AF904E000BF02E000BF00E000BF283704
:104B3C00BD4680BDDD4C000880B483B000AF78600A
:104B4C0000BF0C37BD4680BC704780B483B000AF4B
:104B5C00786000BF0C37BD4680BC704780B483B012
:104B6C0000AF78600B467B8000BF0C37BD4680BC25
:104B7C00704780B584B000AFF860B9603B601346F5
:104B8C00FB712CE0BB69B3F1FF3F28D0BB69002B54
:104B9C0007D0FCF781FA02463B68D31ABA699A42ED
:104BAC001DD2FB681B68DA68FB681B6822F4D072A4
:104BBC00DA60FB681B685A69FB681B6822F001020B
:104BCC005A61FB68202283F83D20FB68202283F881
:104BDC003E20FB68002283F83C2003230FE0FB6897
:104BEC001B681A68BB681340BA689A420CBF012351
:104BFC000023DBB21A46FB799A42C3D00023184635
:104C0C001037BD4680BD80B485B000AFF860B96088
:104C1C001346FB80FB68BA689A62FB68FA889A852F
:104C2C00FB68FA88DA85FB6800221A64FB6822228A
:104C3C0083F83E20FB68002283F83C20FB681B684D
:104C4C00DA68FB681B6842F48072DA60FB681B68E8
:104C5C005A69FB681B6842F001025A61FB681B68C9
:104C6C00DA68FB681B6842F02002DA600023184601
:104C7C001437BD4680BC704780B483B000AF7860F9
:104C8C007B681B68DA687B681B6822F49072DA60B8
:104C9C007B681B685A697B681B6822F001025A61A9
:104CAC007B681B6B012B07D17B681B68DA687B6800
:104CBC001B6822F01002DA607B68202283F83E2009
:104CCC007B6800221A6300BF0C37BD4680BC70475E
:104CDC0080B584B000AF78607B685B6AFB60FB6872
:104CEC000022DA85FB680022DA84F868FFF72DFFD2
:104CFC0000BF1037BD4680BD80B485B000AF786072
:104D0C007B6893F83D30DBB2212B3ED17B689B68EE
:104D1C00B3F5805F14D17B681B69002B10D17B68C5
:104D2C001B6AFB60FB681B881A467B681B68C2F316
:104D3C0008025A607B681B6A9A1C7B681A6208E03E
:104D4C007B681B6A591C7A6811621A787B681B682D
:104D5C005A607B68DB8C9BB2013B9BB27A6819462C
:104D6C00D184002B0FD17B681B68DA687B681B68C9
:104D7C0022F08002DA607B681B68DA687B681B684B
:104D8C0042F04002DA60002300E002231846143798
:104D9C00BD4680BC704780B582B000AF78607B6840
:104DAC001B68DA687B681B6822F04002DA607B685B
:104DBC00202283F83D207868FFF7BEFE00231846BA
:104DCC000837BD4680BD80B586B000AF78607B6883
:104DDC0093F83E30DBB2222B40F099807B689B68C5
:104DEC00B3F5805F17D17B681B69002B13D10023AF
:104DFC007B617B689B6A3B617B681B685B689BB2D1
:104E0C00C3F308039AB23B691A807B689B6A9A1CAD
:104E1C007B689A6226E07B689B6A7B6100233B611E
:104E2C007B689B68B3F5805F07D07B689B68002B21
:104E3C000AD17B681B69002B06D17B681B685B68F9
:104E4C00DAB27B691A7008E07B681B685B68DBB2BE
:104E5C0003F07F03DAB27B691A707B689B6A5A1C79
:104E6C007B689A627B68DB8D9BB2013B9BB27A6854
:104E7C001946D185002B48D17B681B68DA687B68A2
:104E8C001B6822F02002DA607B681B68DA687B689A
:104E9C001B6822F48072DA607B681B685A697B6835
:104EAC001B6822F001025A617B68202283F83E20A5
:104EBC007B681B6B012B23D17B6800221A637B68F8
:104ECC001B68DA687B681B6822F01002DA607B686A
:104EDC001B681B6803F01003102B0AD10023FB6026
:104EEC007B681B681B68FB607B681B685B68FB60EE
:104EFC00FB687B689B8D19467868FFF72FFE02E0F4
:104F0C007868FBF7D7F9002302E0002300E00223C6
:104F1C0018461837BD4680BD80B584B000AF7860A8
:104F2C007B681B681B6923F440517B68DA687B68DB
:104F3C001B680A431A617B689A687B681B691A4371
:104F4C007B685B691343BB607B681B68DB6823F47D
:104F5C00B05323F00C037A681268B9680B43D36022
:104F6C007B681B685B6923F440717B689A697B687A
:104F7C001B680A435A617B681B682C4A934203D115
:104F8C00FDF742FEF86002E0FDF72AFEF860FA68D1
:104F9C0013469B0013449A001A447B685B689B0081
:104FAC00B2FBF3F3224AA2FB03235B091901FA6853
:104FBC0013469B0013449A001A447B685B689B0061
:104FCC00B2FBF3F21A4BA3FB02035B09642000FB58
:104FDC0003F3D31A1B013233154AA2FB03235B09DB
:104FEC0003F0F0031944FA6813469B0013449A002B
:104FFC001A447B685B689B00B2FBF3F20C4BA3FB7F
:10500C0002035B09642000FB03F3D31A1B01323348
:10501C00074AA2FB03235B0903F00F027B681B68A2
:10502C000A449A6000BF1037BD4680BD003801406D
:10503C001F85EB5180B58AB000AF0346FB804FF45F
:10504C0080512948FDF798F90346002B36D107F11A
:10505C00180300221A605A609A60DA604FF4804399
:10506C00BB610223FB6100233B6203237B6207F1DC
:10507C00180319461C48FCF73FFF1C4B1B78002BF0
:10508C000BD01B4B1B78002B07D01A4B1B681A4AF2
:10509C001360164B00221A7006E0154B1B78002B80
:1050AC0002D0154B154A1A60134B1968144B1A6829
:1050BC004FF484731348FDF7FBFF11E007F108036D
:1050CC0000221A605A609A60DA604FF48043BB6029
:1050DC000023FB6007F1080319460348FCF70CFF9B
:1050EC0000BF2837BD4680BD000C01409102002056
:1050FC0092020020BC060020B4060020C00600204E
:10510C00B8060020C800002080B485B000AF7860DD
:10511C000B46FB700023FB6007E0FB687A681344C6
:10512C00FA781A70FB680133FB60FB68B3F5847F77
:10513C00F3DB00BF00BF1437BD4680BC70470000D6
:10514C0080B500AF074B00221A70064B1B7818462F
:10515C0000F050F8AA210448FFF7D6FF00F012F82F
:10516C0000BF80BD92020020A404002080B500AFD7
:10517C00FFF7E6FF024B00221A7000BF80BD00BF94
:10518C009102002080B582B000AF194BFA221A7040
:10519C00174BAF225A70164B03229A70144BFF22F6
:1051AC0083F80221124B0D2283F803214FF48271F4
:1051BC000F4800F091F878607B681B0EDAB20C4B4C
:1051CC0083F804217B681B0CDAB2094B83F80521A8
:1051DC007B681B0ADAB2064B83F806217B68DAB2CD
:1051EC00034B83F8072100BF0837BD4680BD00BFC5
:1051FC00C006002080B483B000AF0346FB71FB797E
:10520C00002B03D0074B084A1A6005E0074B084AED
:10521C001A60044B074A1A6000BF0C37BD4680BCAD
:10522C00704700BFB8060020AC050020B406002073
:10523C00A40400209402002080B582B000AF7860F6
:10524C007B681B68114A93421BD1114B1B78002BB6
:10525C0003D00F4B00221A700EE00D4B01221A7076
:10526C000C4A0D4B104619464FF484731A4600F045
:10527C0083F80A4B01221A70054B1B781846FFF76E
:10528C00B9FF00BF0837BD4680BD00BF00380040E5
:10529C00920200209C030020940200209002002027
:1052AC0080B582B000AF78607B681B68084A934277
:1052BC000AD10848FDF7D4FE0120FBF7F7FE05489C
:1052CC00FDF74AFEFFF752FF00BF0837BD4680BD11
:1052DC0000380040C800002080B485B000AF786072
:1052EC000B467B804FF0FF33FB600023BB6011E06B
:1052FC00BB687A6813441B781A46FB685340DBB2D0
:10530C000A4A52F82320FB681B0A5340FB60BB6817
:10531C000133BB607B88BA689A42E9DBFB68DB43EC
:10532C0018461437BD4680BC704700BF00540008B7
:10533C0070B500260C4D0D4C641BA410A64209D16F
:10534C0000F030F800260A4D0A4C641BA410A6424B
:10535C0005D170BD55F8043B98470136EEE755F87A
:10536C00043B98470136F2E7005800080058000843
:10537C0000580008045800080A44914200F1FF3319
:10538C0000D1704710B511F8014B914203F8014F51
:10539C00F9D110BD03460244934200D1704703F883
:1053AC00011BF9E7F8B500BFF8BC08BC9E46704776
:0C53BC00F8B500BFF8BC08BC9E46704766
:1053C80002030405060708090A0B0C0D0E0F10103E
:1053D80002030405060708090A0B0C0D0E0F10102E
:1053E800000000000000000001020304060708098D
:1053F8000000000001020304000000009630077757
:105408002C610EEEBA51099919C46D078FF46A70B0
:1054180035A563E9A395649E3288DB0EA4B8DC79D0
:105428001EE9D5E088D9D2972B4CB609BD7CB17E50
:10543800072DB8E7911DBF906410B71DF220B06A20
:105448004871B9F3DE41BE847DD4DA1AEBE4DD6D30
:1054580051B5D4F4C785D38356986C13C0A86B6430
:105468007AF962FDECC9658A4F5C0114D96C066350
:10547800633D0FFAF50D088DC8206E3B5E10694C30
:10548800E44160D5727167A2D1E4033C47D4044B70
:10549800FD850DD26BB50AA5FAA8B5356C98B24250
:1054A800D6C9BBDB40F9BCACE36CD832755CDF45D0
:1054B800CF0DD6DC593DD1ABAC30D9263A00DE5100
:1054C8008051D7C81661D0BFB5F4B42123C4B356F0
:1054D8009995BACF0FA5BDB89EB802280888055F70
:1054E800B2D90CC624E90BB1877C6F2F114C6858D0
:1054F800AB1D61C13D2D66B69041DC760671DB01BE
:10550800BC20D2982A10D5EF8985B1711FB5B6068F
:10551800A5E4BF9F33D4B8E8A2C9077834F9000FCF
:105528008EA8099618980EE1BB0D6A7F2D3D6D086F
:10553800976C6491015C63E6F4516B6B62616C1C5F
:10554800D83065854E0062F2ED95066C7BA5011B8F
:10555800C1F4088257C40FF5C6D9B06550E9B7122F
:10556800EAB8BE8B7C88B9FCDF1DDD62492DDA15EF
:10557800F37CD38C654CD4FB5861B24DCE51B53A0F
:105588007400BCA3E230BBD441A5DF4AD795D83D0F
:105598006DC4D1A4FBF4D6D36AE96943FCD96E344F
:1055A800468867ADD0B860DA732D0444E51D03332F
:1055B8005F4C0AAAC97C0DDD3C710550AA4102273F
:1055C80010100BBE86200CC925B56857B3856F200F
:1055D80009D466B99FE461CE0EF9DE5E98C9D9296F
:1055E8002298D0B0B4A8D7C7173DB359810DB42EAF
:1055F8003B5CBDB7AD6CBAC02083B8EDB6B3BF9AFB
:105608000CE2B6039AD2B1743947D5EAAF77D29D86
:105618001526DB048316DC73120B63E3843B649466
:105628003E6A6D0DA85A6A7A0BCF0EE49DFF099366
:1056380027AE000AB19E077D44930FF0D2A30887D6
:1056480068F2011EFEC206695D5762F7CB67658086
:1056580071366C19E7066B6E761BD4FEE02BD38986
:105668005A7ADA10CC4ADD676FDFB9F9F9EFBE8EE6
:1056780043BEB717D58EB060E8A3D6D67E93D1A126
:10568800C4C2D83852F2DF4FF167BBD16757BCA606
:10569800DD06B53F4B36B248DA2B0DD84C1B0AAFA6
:1056A800F64A0336607A0441C3EF60DF55DF67A826
:1056B800EF8E6E3179BE69468CB361CB1A8366BCB6
:1056C800A0D26F2536E2685295770CCC03470BBB06
:1056D800B91602222F260555BE3BBAC5280BBDB206
:1056E800925AB42B046AB35CA7FFD7C231CFD0B5A6
:1056F8008B9ED92C1DAEDE5BB0C2649B26F263EC98
:105708009CA36A750A936D02A906099C3F360EEBA5
:105718008567077213570005824ABF95147AB8E265
:10572800AE2BB17B381BB60C9B8ED2920DBED5E545
:10573800B7EFDC7C21DFDB0BD4D2D38642E2D4F195
:10574800F8B3DD686E83DA1FCD16BE815B26B9F625
:10575800E177B06F7747B718E65A0888706A0FFF85
:10576800CA3B06665C0B0111FF9E658F69AE62F845
:10577800D3FF6B6145CF6C1678E20AA0EED20DD745
:105788005483044EC2B30339612667A7F71660D065
:105798004D476949DB776E3E4A6AD1AEDC5AD6D9A5
:1057A800660BDF40F03BD83753AEBCA9C59EBBDEC5
:1057B8007FCFB247E9FFB5301CF2BDBD8AC2BACA75
:1057C8003093B353A6A3B4240536D0BA9306D7CDE5
:1057D8002957DE54BF67D9232E7A66B3B84A61C405
:1057E800021B685D942B6F2A37BE0BB4A18E0CC3C5
:0857F8001BDF055A8DEF022DA5
:04580000310100086A
:045804000D0100088A
:0C5808000024F40010000000010000006B
:0400000508000FA937
:00000001FF
